:020000040800F2
:100000002007002001010008D32800081122000861
:10001000D1280008D1030008D130000800000000FA
:10002000000000000000000000000000F7280008A9
:100030001704000800000000F5280008F92800084F
:100040001B0100081B0100081B0100081B01000820
:100050001B0100081B0100081B0100081B01000810
:100060001B0100081B0100081B0100081B01000800
:100070001B0100081B0100081B0100081B010008F0
:10008000D5030008E10300081B0100081B0100085C
:100090001B0100081B0100081B0100081B010008D0
:1000A0001B0100081B0100081B0100081B010008C0
:1000B0001B010008A52900081B0100081B010008FE
:1000C0001B0100081B0100081B0100081B010008A0
:1000D0001B0100081B010008C53000081B010008B7
:1000E000190400081B0100081B010008DFF80CD0F0
:1000F00000F0EEF8004800476D36000820070020A9
:100100000648804706480047FEE7FEE7FEE7FEE7B1
:10011000FEE7FEE7FEE7FEE7FEE7FEE75D290008F3
:10012000ED000008202A04DB203A21FA02F0002129
:10013000704721FA02F3D040C2F1200291400843F7
:1001400019467047D2B201E000F8012B491EFBD2DC
:1001500070470022F6E710B513460A4604461946D2
:10016000FFF7F0FF204610BD80EA010210B502F053
:100170000043400022D04A001FD0010E01EB126163
:10018000C0F35600C2F3560240F4000042F40002ED
:10019000A0FB022000047F39140400D0401C50EA68
:1001A000124001D44000491EC2B20C0604EBD0102C
:1001B000401C4008802A02D003E0002010BD20F03F
:1001C0000100002900DA0020184310BD9623002208
:1001D000114600F04EB820F00040C10DC0F31600EB
:1001E00040F400007F2901DA00207047962903DCE3
:1001F000C1F19601C84070479639884070472DE993
:10020000F05F0546002092469B468846064681469A
:1002100040241BE02846414647462246FFF782FF1E
:1002200053465A46C01A914110D3114618462246E9
:1002300000F060F82D1A67EB01084F4622460120B6
:10024000002100F057F817EB00094E41201EA4F1E1
:100250000104DFDC484631462A464346BDE8F09FAC
:100260000029A8BF7047401C490008BF20F00100CA
:10027000704710B4B0FA80FC00FA0CF050EA0104A8
:1002800004BF10BC704749B1CCF1200421FA04F43A
:1002900011FA0CF118BF012121430843A3EB0C0113
:1002A000CB1D4FEA00614FEA102042BF002010BC76
:1002B000704700EBC35010440029A4BF10BC704726
:1002C000401C490008BF20F0010010BC704700002E
:1002D000064C074D06E0E06840F0010394E8070093
:1002E00098471034AC42F6D3FFF704FF584C00088F
:1002F000784C0008202A04DB203A00FA02F10020A2
:1003000070479140C2F1200320FA03F31943904053
:100310007047000070B5044600688168C943C9078A
:100320001CD1816821F00101816000F039FD054692
:100330000FE000BF00F034FD401B022809D9A06A7D
:1003400040F01000A062E06A40F00100E06201208D
:1003500070BD20688068C043C007EBD0002070BD2E
:10036000F8B500260446009600688168C943C907AD
:1003700028D0816841F00101816013481349006869
:10038000B0FBF1F000E0401E00900028FBD100F02F
:1003900007FD054611E000BF00F002FD401B0228EA
:1003A0000BD9A06A40F01000A062E06A40F00100A2
:1003B000E06284F824600120F8BD20688068C043B2
:1003C000C007E9D10020F8BD9400002040420F0092
:1003D000FEE70000014800F0B5BA000094020020DA
:1003E000014800F0AFBA0000D802002030B590F804
:1003F00040500124AC40C56B6C6004686360436886
:10040000102B036803D099600068C26030BD9A6009
:100410000068C16030BD704710B54FF4805000F0E7
:10042000CBFB4FF4005000F0C7FB4FF4804000F0CE
:10043000C3FBBDE810404FF4004000F0BDBB704767
:10044000F8B50024009490F824202546012A12D003
:10045000012280F824204A681F23072A0DD206684B
:10046000776B521E02EB820293409F430B689340CE
:100470001F43776319E00220F8BD06680D2A0AD2EF
:10048000376BD21F02EB820293409F430B6893406D
:100490001F43376309E0F76A0D3A02EB820293408B
:1004A0009F430B6893401F43F7620A68072306685F
:1004B0000A2A0AD3F7680A3A02EB420293409F43A2
:1004C0008B6893401F43F76008E0376902EB4202F4
:1004D00093409F438B6893401F4337610A68102AFB
:1004E00001D0112A20D1124B02689A4217D1936889
:1004F0001B0219D4936843F4000393600968102920
:1005000012D10C490C4A0968B1FBF2F101EB8101EF
:10051000490000E0491E00910029FBD104E0816AF6
:1005200041F020018162012480F824502046F8BD6A
:10053000002401409400002040420F00806A704770
:100540000068C06C704700002DE9F0414FF00007D3
:1005500004003D467ED0A06A002628B9E66284F8F1
:100560002460204600F07EF82046FFF7D3FEA16A03
:10057000C90600D420B1A06A40F01000A06269E072
:10058000A16A21F4885141F00201A1626268E16927
:10059000E3680A4347EA43010A43A1684FF48077BE
:1005A000B94209D0012907D05FF00001D4F814C086
:1005B000BCF1010F02D00AE03946F7E7F3B1A36AB4
:1005C00043F02003A362E36A43F00103E36223687C
:1005D000D3F804C02CF4694C4CEA010CC3F804C0F5
:1005E00021688B68DFF870C003EA0C0313438B604B
:1005F000A168B9420BD0012909D00CE0DFF85CC03A
:10060000A3690CEB43330B4343F40061DFE7218A1A
:100610000D05A5F580152168CB6A23F470032B43E3
:10062000CB62216889680E4B1940914208D1E6627D
:10063000A16A21F0020141F00101A162BDE8F0814F
:10064000A06A20F0020040F01000A062E06A40F0D2
:100650000100E0620120F1E7FDF7E1FF00E0FFFFAC
:10066000FE0E1FFF00B585B000210091019102919F
:10067000039100680E49884218D10E48816941F4FF
:1006800000718161816901F400710491816941F017
:10069000040181618069694600F004000490022031
:1006A000009003200190044800F092FA05B000BDCC
:1006B0000024014000100240000801402DE9F843E9
:1006C00000260D460446009600F06AFB804620682E
:1006D0008168C90508D5A06A40F02000A06284F8AE
:1006E00024600120BDE8F8834168C90503D4C06ACD
:1006F00010F4700F26D0022000F0FCFB3849096886
:10070000B1FBF0F72068036936490B424FEA6101FB
:100710004FEAA1121BD1C3684FEA611C13EA0C0F08
:1007200015D103690B4221D1C06810421ED114209B
:100730001FE0681C06D045B300F032FBA0EB0800B8
:10074000A84222D8206800688007F2D52AE0036911
:100750000B4202D1C168114206D0026922490A4205
:1007600006D1C068084203D1542002E0292000E0ED
:10077000FC204743009813E0681C0ED02DB100F018
:100780000FFBA0EB0800A84207D9A06A40F00400C4
:10079000A06284F824600320A4E70098401C009025
:1007A000B842E9D321686FF012000860A06A40F4F3
:1007B0000070A06220688068C0F3424007280CD116
:1007C000E06850B9A06A20F48070A062A06AC004FA
:1007D00003D4A06A40F00100A062002082E700007C
:1007E00094000020244992244992240070B50446C4
:1007F00090F8240001280DD0012084F82400204620
:10080000FFF7AEFD02004FF0000005D084F8240091
:10081000104670BD022070BDA16A40F201239943C9
:1008200041F48071A1621F4D23681F49AB4218D16A
:100830000E6816F4702F14D0A66A46F48016A662CD
:100840000E68760505D5A66A26F4005646F480564D
:10085000A662A66AF6040AD5E66A26F00606E662ED
:1008600006E0A66A26F48016A6625E68E9E7E06202
:1008700084F824006FF00200186020688368C3F3D6
:100880004243072B05D1A84208D1096811F4702F03
:1008900004D0816841F480118160B9E7816841F436
:1008A000A001F9E7002801400424014010B590F8A8
:1008B00021100024022903D00421816301243DE09A
:1008C00001680A6822F00E020A6001680A6822F0D4
:1008D00001020A601A4A0168914201D1012121E016
:1008E000174A1432914201D110211BE0144A2832D8
:1008F000914201D1891515E0114A3C32914201D152
:1009000089140FE00E4A5032914202D14FF48031E7
:1009100008E00B4A6432914202D14FF4801101E0A9
:100920004FF08071064A083A5160012180F8211089
:10093000002180F82010416B01B18847204610BD8E
:10094000080002402DE9F05FC16B0C6801680B687C
:10095000D0F840C0042202FA0CF2494DDFF824A17D
:10096000494E4A4FDFF828B1DFF828E122422CD067
:100970005A072AD50A68920603D40A6822F00402AC
:100980000A600168A94201D1042219E0514501D150
:10099000402215E0B14202D14FF4806210E0B9422A
:1009A00002D14FF480420BE0594502D14FF480222E
:1009B00006E0714502D14FF4800201E04FF0806201
:1009C0002F4908394A60C16A3BE04FF0020808FA33
:1009D0000CF818EA040F4FF000094FF0010235D06F
:1009E0005FEA837832D50B689B0605D40B6823F049
:1009F0000A030B6080F821200168A94201D102227C
:100A000019E0514501D1202215E0B14202D14FF445
:100A1000007210E0B94202D14FF400520BE0594588
:100A200002D14FF4003206E0714502D14FF40012BA
:100A300001E04FF00072124908394A6080F82090B6
:100A4000816A00291AD0BDE8F05F0847082505FA39
:100A50000CF5254212D01B0710D50B6823F00E03AE
:100A60000B6090F84010C36B02FA01F15960826389
:100A700080F8212080F82090016BE2E7BDE8F09F2C
:100A8000080002401C0002403000024044000240C6
:100A9000580002406C00024030B528B308C8134922
:100AA00014221944B1FBF2F18900C163104981633A
:100AB000022141771A6843F6F0718A43D0E90014A5
:100AC0002143D0E902452C43214304692143446971
:100AD00021438469214311431960002141630122AC
:100AE00042770177084630BD012030BDF8FFFDBFD9
:100AF0000000024070B5044690F82000002501284F
:100B00000CD0012084F8200094F821600020012EF0
:100B100006D084F820000225284670BD022070BD52
:100B2000022684F82160A0632068066826F001068A
:100B300006602046FFF75AFCE06A0028206801683A
:100B400002D041F00E0106E021F0040101602068AE
:100B5000016841F00A0101602068016841F001016B
:100B60000160D9E770B5044600F01AF90546601C2B
:100B700002D004480078044400F012F9401BA0425F
:100B8000FAD370BD880000200A49B0F5805F0BD011
:100B9000B0F5005F0AD0B0F5804F09D0B0F5004F36
:100BA00001D10420C87170470120FBE70220F9E75A
:100BB0000320F7E700000020044910B50A6802424C
:100BC00002D00860FFF7E0FF10BD000014040140F0
:100BD0002DE9F84FDFF890A100220AF1040B14462A
:100BE00001274FF00F090BF1040E00BF0B6807FA45
:100BF00004F52B40AB4274D1DFF870C14E68A6EB10
:100C00000C0866452BD00DDC032E34D005DC36B342
:100C1000012E19D0022E2FD11BE0112E16D0122E2C
:100C20002AD119E0B8F5881F19D006DCB8F5803F45
:100C300015D0B8F5801F1FD111E0B8F5001F0ED0F8
:100C4000B8F5041F18D10AE0CA6815E0CA68121D79
:100C500012E0CA6808320FE0CA680C320CE08A68F9
:100C60002AB1012A4FF0080203D0456104E00422B2
:100C700002E0056100E00022FF2B01D8064601E0FA
:100C800000F104064FEA840501D9A5F12005D6F844
:100C900000C009FA05F82CEA080C02FA05F54CEA3E
:100CA000050CC6F800C04D68ED0057D5304DAE6953
:100CB00046F00106AE61AD6924F0030605F00105BA
:100CC00000952C4D06EB050CDCF80850A6074FEA02
:100CD000167809FA08F6B543274EB04202D100262D
:100CE00010E03BE0254EB04201D101260AE0244E3F
:100CF000B04201D1022605E0224EB04201D10326C6
:100D000000E0042606FA08F62E43CCF808604D6889
:100D1000DAF80060ED03554601D51E4300E09E431E
:100D20002E604D68DBF80060AD035D4601D51E43C3
:100D300000E09E432E604D68DEF80060ED027546CF
:100D400001D51E4300E09E432E604D68AD020E4D5E
:100D50002E6801D51E4300E09E432E60641C102CBB
:100D6000FFF444AFBDE8F88F00040140000011100B
:100D7000001002400000014000080140000C01404A
:100D800000100140001401400C040140C2684A40B8
:100D9000C26070470AB1016170470904FBE70000B7
:100DA00001488068704700008800002005490968F4
:100DB00001600449091D0968416002490831096858
:100DC00081607047E8F7FF1F02488168027811448C
:100DD0008160704788000020074810B5016841F025
:100DE00010010160032000F073F8002000F006F805
:100DF00000F024F8002010BD0020024070B50D4D19
:100E000004464FF47A712878B1FBF0F00A4909687A
:100E1000B1FBF0F000F0D6FB48B9102C07D200224D
:100E20002146501E00F034F800206C6070BD012097
:100E300070BD000088000020940000200C4808B518
:100E4000816941F001018161816901F00101009135
:100E5000C16941F08051C161C06900F080500090CB
:100E60000448416821F0E06141F00071416008BD33
:100E7000001002400000014000F01F0201219140DB
:100E80004009800000F1E020C0F800117047000028
:100E9000F0B40E4B1B680C46C3F30223C3F10705E5
:100EA000042D00D90425191D072901D2002300E0D3
:100EB000DB1E012606FA05F1491E214099409E409D
:100EC000761E16403143F0BC01F004BD0CED00E08D
:100ED000064900F0070208684FF6FF03184040EA91
:100EE0000220034A10430860704700000CED00E048
:100EF0000000FA0510B529A401461DCC86B08DE886
:100F00001D002AA02A4C006804900020012923D04B
:100F100002293AD010291DD161682268D20119D561
:100F2000C1F38342C9031DF8020009D5616804AA10
:100F3000C1F34041515C1F4AB2FBF1F1484301E06B
:100F40001D4948436168490204D440005FF0030131
:100F5000B0FBF1F006B010BD226AC2F301210129F5
:100F600003D1920701D5C803F4E7022905D1626ACB
:100F7000920702D549F64040ECE70329EAD12168FF
:100F80008903E7D54FF22440E4E700F053F96168A4
:100F9000C1F38131491C4900DAE70000020304056E
:100FA000060708090A0B0C0D0E0F101001020000B5
:100FB0000010024000127A0000093D002DE9F843BC
:100FC00005460078354CC00754D0E0690026C000C3
:100FD00008D4E06940F08050E061E069012600F04B
:100FE000805000902E480168C90512D401688046DF
:100FF00041F480710160FFF7D3FE074605E000BFB2
:10100000FFF7CEFEC01B642823D8D8F80000C00527
:10101000F6D5206A10F4407021D0A98801F44071FF
:1010200081421CD0206A1F49012220F440700A60CE
:1010300000220A602062C00711D0FFF7B1FE074608
:1010400041F2883808E000BFFFF7AAFEC11B414506
:1010500002D90320BDE8F883206A8007F4D5206A0E
:10106000696820F44070084320621EB1E06920F0F6
:101070008050E0612878800705D56068A96820F471
:101080004040084360602878C00605D56068E9687C
:1010900020F48000084360600020DBE7001002407D
:1010A00000700040400442422DE9F047DFF85481CF
:1010B00005460E46D8F8000000F00700B0420CD2FA
:1010C000D8F8001021F007013143C8F80010D8F813
:1010D000000000F00700B0426FD128684A4C810739
:1010E00012D5400703D5606840F4E060606028785E
:1010F000000703D5606840F4605060606068A968CC
:1011000020F0F000084360602878C00744D0686889
:10111000012816D02168022816D0890700294CDA48
:10112000616821F0030101436160FFF739FE6968DE
:10113000074641F2883001290ED00229814618D095
:1011400026E021688903E9E78901E7E7FFF728FE40
:10115000C11B494501D918E081466068C0F3810090
:101160000128F3D118E000BFFFF71AFEC11B494563
:101170000BD86068C0F381000228F5D10CE000BFF5
:10118000FFF70EFEC11B494502D90320BDE8F087D9
:10119000606810F00C0FF3D1D8F80010404601F051
:1011A0000701B1420BD9016821F007013143016009
:1011B000006800F00700B04201D00120E6E728787F
:1011C000400705D56068E96820F4E0600843606086
:1011D0002878000706D56068296920F4605040EA45
:1011E000C100606000F036F86168084AC1F303117D
:1011F000515CC840064908600020FFF7FFFD002051
:10120000C4E7000000200240001002403F4C0008EC
:10121000940000200448054900684968044AC1F365
:101220000221515CC8407047940000200010024029
:101230004F4C00080448054900684968044AC1F356
:10124000C221515CC8407047940000200010024049
:101250004F4C000812A185B00FC98DE80F0014A0F3
:10126000144A006804905168134801F00C03042BE1
:1012700010D0082B0ED1C1F38343C9031DF803001E
:101280000AD5516804AAC1F34041515C0A4A50434F
:10129000B0FBF1F005B0704708494843FAE7000099
:1012A00002030405060708090A0B0C0D0E0F1010A7
:1012B000010200000010024000127A0000093D0007
:1012C0002DE9F84F04460078B94DC00748D068684A
:1012D000C0F38100012807D06868C0F381000228AC
:1012E00009D16868C00306D52868800338D56068CE
:1012F00000286FD034E06068B0F5803F0BD010B1AB
:10130000B0F5A02F11D0286820F48030286028681C
:1013100020F4802002E0286840F480302860606873
:1013200088B1FFF73DFD064609E0286840F48020BB
:101330002860F0E7FFF734FD801B642875D8286823
:101340008003F7D50CE0FFF72BFD064605E000BF54
:10135000FFF726FD801B6428F0D828688003F7D4A7
:101360002078944E80074FF001094FF000083BD5DC
:10137000686810F00C0F07D06868C0F3810002287D
:1013800009D16868C00306D42868800714D520698D
:1013900001281FD110E02069B0B1C6F80090FFF716
:1013A000FFFC074605E000BFFFF7FAFCC01B022860
:1013B000C4D828688007F7D52868616920F0F8004C
:1013C00040EAC10028600FE0C6F80080FFF7E8FCA3
:1013D000074606E0E9E000BFFFF7E2FCC01B022879
:1013E00023D828688007F7D4207800072CD57248C6
:1013F000A169D9B1C0F80090FFF7D2FC074604E01C
:10140000FFF7CEFCC01B02280FD8686A8007F7D50B
:101410006A484FF4FA510068B0FBF1F0009000BF49
:101420000098411E0091FAD20EE080E0C0F80080E2
:10143000FFF7B6FC074604E0FFF7B2FCC01B02282A
:1014400075D8686A8007F7D42078400760D5E869C6
:101450000027C00008D4E86940F08050E861E869DE
:10146000012700F08050009055480168C90513D449
:101470000168834641F480710160FFF791FC824668
:1014800006E000BFFFF78CFCA0EB0A0064284ED8F2
:10149000DBF80000C005F5D5E06801280AD008B1E6
:1014A000052813D0286A20F001002862286A20F05D
:1014B000040002E0286A40F001002862E06841F27E
:1014C000883B98B1FFF76CFC82460BE0286A40F03D
:1014D00004002862EEE700BFFFF762FCA0EB0A0100
:1014E00059455AD8286A8007F6D50CE0FFF758FC12
:1014F000824605E0FFF754FCA0EB0A0159454CD8A1
:10150000286A8007F6D41FB1E86920F08050E861AE
:10151000E06988B36968C1F38101022945D00228D6
:10152000C6F8608004D0FFF73BFC044638E034E0A6
:10153000FFF736FC074604E0FFF732FCC01B022829
:101540002BD828688001F7D4206AB0F5803F05D1F8
:101550006868A16820F4003008436860D4E9080195
:101560000843696821F4741108436860C6F8609004
:10157000FFF716FC044606E015E000BFFFF710FC7D
:10158000001B022809D828688001F7D50BE000BFAE
:10159000FFF706FC001B022802D90320BDE8F88FE4
:1015A00028688001F4D40020F8E70120F6E7000065
:1015B0000010024000004242800442429400002099
:1015C0000070004010B5401EB0F1807F01D30120B3
:1015D00010BD4FF0E02460610F21601701F07AF92F
:1015E0000020A06107202061002010BD70477047D7
:1015F00030B590F83C20012A20D0012280F83C2010
:10160000022380F83D3003685C6824F070045C605D
:1016100003685C680D682C435C6003689C6824F078
:1016200080049C6003689C6849680C439C6080F857
:101630003D20002180F83C10084630BD022030BD1E
:1016400010B5040003D094F83D0010B107E001206C
:1016500010BD002084F83C00204600F00DF8022068
:1016600084F83D00211D206801F0A2F9012084F8D2
:101670003D00002010BD000000B585B000210091A4
:1016800001910291039101681748B1F1804F22D076
:10169000164A91421DD1C16941F00201C161C1697F
:1016A00001F002010491816941F0040181618069C6
:1016B000694600F004000490802000900C48FFF779
:1016C00087FA002211461D20FFF7E2FB1D20FFF7DD
:1016D000D3FB05B000BDC16941F00101C161C06922
:1016E00000F001000490F4E7001002400004004004
:1016F0000008014070B5044690F83C00012817D05E
:10170000012584F83C50022084F83D00206882685E
:1017100022F0770222F47F4282600868502837D096
:101720000DDC202859D005DC88B3102841D151E0C8
:10173000022070BD302853D040283AD13FE06028C5
:101740002ED070280BD0B0F5805F03D0B0F5005FCD
:101750002FD110E02068816821F0070115E0CB68E7
:10176000D1E90121206801F064F92168886840F01E
:10177000770088601DE0CB68D1E90121206801F085
:1017800058F92068816841F48041816011E01EE0D1
:10179000CA684968206801F03FFA5021206806E0D5
:1017A000CA684968206801F075FA6021206801F074
:1017B0004AF984F83D50002084F83C0070BDCA68A6
:1017C0004968206801F028FA40212068EFE70021ED
:1017D0002068ECE710212068E9E720212068E6E78F
:1017E00030212068E3E7000010B5007F084C012895
:1017F00007D0022804D10421064800F052FA2062E2
:1018000010BD0021034800F04CFAE06110BD00005B
:10181000000000200C0100202DE9F041044690F862
:101820003C000D4601283BD0012684F83C60022094
:1018300084F83D009AB3042A44D02068082A53D083
:10184000D5E90027E968036A23F480530362D0F8DE
:101850001CC0036A2CF4407C4CEA07274FF6FF7C3F
:1018600027F470470CEA01313943770323F400531E
:1018700007EA02321A43C16102622068C16921F499
:101880004061C1612068C169AA6841EA0221C16161
:1018900084F83D60002084F83C00BDE8F08101E060
:1018A0000220FAE7D5E90012EB68206801F0C6F9DA
:1018B0002068816921F00C01816120688169AA6832
:1018C00011430FE0D5E90012EB68206801F0F4F94C
:1018D0002068816921F44061816120688169AA687A
:1018E00041EA02218161D3E7D5E9002C2F7B016A0F
:1018F00021F480710162C169036A21F0030141EAA8
:101900000C0121F0F00C39074FF400774CEA11611B
:1019100023F4007307EA02221A43C16102622068BD
:10192000C16921F00C01C1612068C169AA68114335
:10193000ADE710B5040003D094F83D0010B107E006
:10194000012010BD002084F83C00204600F00CF877
:10195000022084F83D00211D206801F029F80120B3
:1019600084F83D00002010BD704710B502680446A1
:1019700031B1042908D0082915D00C2908D116E066
:10198000D06840F0020002E0D06840F00400D0606F
:101990000122206801F042F82068016841F001014D
:1019A0000160002010BDD06840F00800EFE7D0686B
:1019B00040F01000EBE770B50446006801694FF095
:1019C0000005C943890715D4C168C943890711D4E3
:1019D000E91E016101202077206880698007204688
:1019E00002D0FFF701FF04E000F0BCF8204600F051
:1019F0003EF9257720680169C943490717D4C168B2
:101A0000C943490713D46FF0040101610220207714
:101A10002068806910F4407F204602D0FFF7E4FE82
:101A200004E000F09FF8204600F021F925772068B7
:101A30000169C943090716D4C168C943090712D40B
:101A40006FF008010161042020772068C0698007D9
:101A5000204602D0FFF7C8FE04E000F083F82046DD
:101A600000F005F9257720680169C943C90617D434
:101A7000C168C943C90613D46FF010010161082081
:101A800020772068C06910F4407F204602D0FFF71D
:101A9000ABFE04E000F066F8204600F0E8F8257799
:101AA00020680169C943C90708D1C168C943C9078A
:101AB00004D1891E0161204600F0F2F82068016916
:101AC000C943090609D4C168C943090605D46FF0A2
:101AD000800101612046FFF789FD20680169C94343
:101AE000490609D4C168C943490605D46FF04001CD
:101AF0000161204600F018F920680169C943890690
:101B00000BD4C168C943890607D46FF02001016175
:101B10002046BDE87040FFF76ABD70BD00B585B0D6
:101B2000002100910191029103910068B0F1804F72
:101B300011D10A48816941F00401816180696946D7
:101B400000F0040004900120009002200190039016
:101B50000348FFF73DF805B000BD0000001002404B
:101B600000080140704770B5044690F83C000D46EF
:101B700001280DD0012684F83C60022084F83D0045
:101B800042B1042A18D0082A2AD00C2A4DD139E0B3
:101B9000022070BD206800F05FFF2068816941F07D
:101BA000080181612068816921F004018161206858
:101BB00081692A69114311E0206800F075FF2068EF
:101BC000816941F4006181612068816921F480614B
:101BD0008161206881692A6941EA0221816124E0EA
:101BE000206800F08DFF2068C16941F00801C161E3
:101BF0002068C16921F00401C1612068C1692A69B6
:101C0000114311E0206800F0A7FF2068C16941F48A
:101C10000061C1612068C16921F48061C1612068EF
:101C2000C1692A6941EA0221C16184F83D6000204E
:101C300084F83C0070BD10B5040003D094F83D005A
:101C400010B107E0012010BD002084F83C002046C0
:101C500000F00CF8022084F83D00211D206800F0FF
:101C6000A7FE012084F83D00002010BD704770479A
:101C700010B504460068012200F0D0FE0749206834
:101C8000884203D1416C41F40041416420680168FD
:101C900041F001010160002010BD0000002C014056
:101CA000704790F83C300022012B0AD0012380F8C5
:101CB0003C3041B1042909D008290AD00C290DD1A2
:101CC0000AE00220704701684A6B07E001688A6BEE
:101CD00004E00168CA6B01E001680A6C002180F829
:101CE0003C101046704770B5044690F83C0001283F
:101CF00018D0012584F83C50022084F83D0020468D
:101D000000F04CFF2068C16821F04001C1602068EC
:101D1000C16821F48041C16084F83D50002084F8FE
:101D20003C0070BD022070BD7047704770B50268FE
:101D300004461068D168536910F00F0F50D003F0BB
:101D4000010501F4907635435DD0C20705D0CA0580
:101D500003D5E26B42F00102E263420705D5DA07E0
:101D600003D0E26B42F00202E263820705D5DA0794
:101D700003D0E26B42F00402E263020705D5DA0702
:101D800003D0E26B42F00802E263E26B002A33D038
:101D9000800604D5880602D5204601F02BF820687D
:101DA0004069E16BC0F38010090700D428B32046D6
:101DB00001F009F82068416949061AD5416921F006
:101DC00040014161606BA0B11B494163606BFEF74C
:101DD0006DFD002810D0606B416BBDE87040084776
:101DE000830610D58B060ED52046BDE8704001F065
:101DF00001B82046FFF799FF70BD2046FFF795FF19
:101E00000020E06370BD030606D50B0604D520460E
:101E1000BDE8704001F0F2B84006F3D54806F1D5B0
:101E2000D168204621F04001D160202184F839108A
:101E300000F0ECF970BD0000EF2C000870B5040054
:101E400004D094F83900002510B106E0012070BDDF
:101E500084F83850204600F023F8242084F8390014
:101E60002068C16821F40051C160204601F00EF8DD
:101E70002068016921F4904101612068416921F0E5
:101E80002A0141612068C16841F40051C160E563E5
:101E9000202084F8390084F83A00002070BD00004A
:101EA000F0B585B000240094019402940394064692
:101EB000414D03684148022103228027AB4228D1CB
:101EC000836943F480438361836903F4804304930B
:101ED000836943F0080383618069394D00F008008D
:101EE00004904020CDE90001039269462846FEF7A0
:101EF0006FFECDE90074694628460294FEF768FE3D
:101F00003048416841F0E06141F00401416005B0B2
:101F1000F0BD2D4DAB42FAD1C36943F40033C36128
:101F2000C36903F400330493836943F004038361BA
:101F30008069264D00F0040004900420CDE90001E2
:101F4000039269462846FEF743FE0820CDE90004C7
:101F5000694628460294FEF73BFE1E4D1C48C5E923
:101F60000004C5E9024720202C61C5E90540284648
:101F7000EC61FEF791FD08B1FEF761FA75636E62E0
:101F80001348154D143001C5102091C5124845F86D
:101F900010496C61AC61EC61FEF77EFD08B1FEF7A3
:101FA0004EFA35630022114626206E62FEF770FF5E
:101FB0002620FEF761FFAAE700380140001002402A
:101FC000000C0140000001400044004000080140B6
:101FD0006C00024094020020D8020020F8B50446AC
:101FE00090F83A0020283CD1C1B3BAB394F8380035
:101FF000012836D0012084F83800A162A28500258E
:10200000E563222084F83A00636B17489862636B9B
:102010001648D862636B16481863606B13464563B5
:102020000846666B216802463046091DFEF762FDD0
:10203000206801684168009184F83850C16841F413
:102040008071C1602068416941F0010141612068EF
:10205000416941F0400141610020F8BDFFE70120E6
:10206000FBE70220F9E70000492D0008852D000854
:10207000FF2C0008144810B50278801F134903791B
:10208000CA540022632B02D25B1C037100E0027170
:1020900003790B4413F8014C0D2C13D113F8023CB7
:1020A0000D2B0FD14379002B0CD101234371027109
:1020B000064B002064330C5C1C540A54401CC0B214
:1020C0006428F8D310BD000006000020CC010020D9
:1020D00070472DE9F843044690F839001F4616462C
:1020E0000D46202850D1A5B19EB194F838000128A2
:1020F0004AD0012084F838004FF00008C4F83C8032
:10210000212084F83900FEF74BFEA6848146E68440
:1021100026E00120BDE8F883E08C401EE084A06842
:102120004B46B0F5805F4FF000024FF08001204633
:10213000009703D000F093FFE8B90DE000F08FFFA7
:10214000C8B928882168C0F308004860206908B130
:102150006D1C05E0AD1C03E0216815F8010B48601B
:10216000E08C0028D8D14B46002240212046009721
:1021700000F075FF08B10320CCE7202084F8390077
:1021800084F838800020C5E70220C3E770B5044614
:1021900090F83900202830D169B362B394F8380040
:1021A00001282AD0012084F838002162A284E28428
:1021B0000025E563212084F83900236B10489862DC
:1021C000236B1048D862236B0F481863206B1346AB
:1021D00045632668206B321DFEF78CFC21686FF08A
:1021E0004000086084F838502068416941F080015F
:1021F0004161002070BD012070BD022070BD000053
:102200008F2D0008BD2D0008FF2C00087047704777
:10221000FEE740F2365305E01946491E89B2FCD26A
:10222000401E80B20028F7D17047000070B5064606
:102230005FF0000404F1B000C0B200F0BDF901206D
:1022400000F0BAF9102000F0B7F90025304600F090
:10225000E3F96D1CEDB2832DF8D3641CE4B2082CB5
:10226000E8D370BD70B5384C012291022046FEF7CC
:1022700091FDA514002229462046FEF78BFD322051
:10228000FFF7C7FF012229462046FEF783FDAE2057
:1022900000F092F9002000F08FF9102000F08CF986
:1022A000402000F089F9812000F086F9CF2000F06D
:1022B00083F9A12000F080F9C82000F07DF9A62064
:1022C00000F07AF9A82000F077F93F2000F074F9C7
:1022D000D32000F071F9002000F06EF9D52000F055
:1022E0006BF9802000F068F9D92000F065F9F12041
:1022F00000F062F9DA2000F05FF9122000F05CF9DA
:10230000DB2000F059F9402000F056F9202000F0C1
:1023100053F9022000F050F98D2000F04DF91420FF
:1023200000F04AF9A42000F047F9A62000F044F993
:10233000AF2000F041F90020FFF778FFBDE87040C2
:102340000021084600F022B9000801402DE9F05FA5
:10235000984691468B46824600250A9E64E00020FE
:10236000012409EB05020BE08B4207D108EB0003C7
:1023700057785B78BB4201D1040105E0801CC0B2F4
:1023800018F800307F2BEFD8BAF1760F05D90BF192
:1023900001004FF0000A00F0FF0B5946504600F0D4
:1023A000F5F8012C1ED05946504600F0EFF80027F2
:1023B000305D00F031F9641C7F1CFFB2A4B2102F15
:1023C000F6D30BF10800C1B2504600F0DFF8002749
:1023D000305D00F021F9641C7F1CFFB2A4B2102F05
:1023E000F6D31BE06D1CEDB25946504600F0CEF816
:1023F0000024002000F010F9641CE4B2102CF8D383
:102400000BF10100C1B2504600F0C0F800240020DA
:1024100000F002F9641CE4B2102CF8D30AF11000A9
:10242000AD1C00F0FF0AEDB219F80510002996D195
:10243000BDE8F09F2DE9F0479A469046894605464B
:1024400000261CE02038C7B27E2D04D909F1010016
:10245000002500F0FF094946284600F097F807EBF1
:10246000470000240AEB4007385D00F0D5F8641CF3
:10247000E4B2062CF8D3AD1D761CEDB2F6B218F816
:1024800006000028DED1BDE8F0872DE9F0479A4626
:10249000914688460546002629E02038C7B2782DA7
:1024A00004D908F10100002500F0FF084146284644
:1024B00000F06CF800240AEB0717385D00F0ACF868
:1024C000641CE4B2082CF8D308F10800C1B2284615
:1024D00000F05CF800243819007A00F09DF8641CC4
:1024E000E4B2082CF7D30835761CEDB2F6B219F831
:1024F00006000028D1D1BDE8F08700002DE9FC4797
:1025000000251646894604462F46DDF8288031E02E
:102510007F288DF8040012D9701901AA40788DF82F
:10252000050017480090A0F16B038DF8067049462E
:102530002046FFF70BFF1034E4B2AD1C19E08DF814
:102540000570B8F1010F03D0B8F1030F08D00FE008
:102550000C4B01AA49462046FFF797FF083406E0D6
:10256000094B01AA49462046FFF764FFA41DE4B2C7
:102570006D1CEDB2705D0028CAD1BDE8FC8700007B
:10258000AF3F00084F4600081C3D000810B5044648
:10259000B02000EBD100C0B200F00EF8102040EAED
:1025A000141000F009F804F00F00BDE8104040F0EE
:1025B000010000F001B800002DE9F041154E05467C
:1025C0000824002221033046FEF7E4FBE701002245
:1025D00039463046FEF7DEFB4FF4006814E028066B
:1025E00001D5012200E0002241463046FEF7D2FB31
:1025F000012239463046FEF7CDFB002239463046EF
:10260000FEF7C8FB6806050E641EE4B2E7D2BDE81B
:10261000F0810000000801402DE9F041154E05460B
:1026200001220824D1033046FEF7B4FBE701002263
:1026300039463046FEF7AEFB4FF4006814E028063A
:1026400001D5012200E0002241463046FEF7A2FB00
:10265000012239463046FEF79DFB002239463046BE
:10266000FEF798FB6806050E641EE4B2E7D2BDE8EB
:10267000F0810000000801403EB500250D4800959E
:10268000019502958560C560094945610160012495
:1026900045604FF460210461C161FDF755FF00946E
:1026A00069460448CDE90145FDF7CAFE3EBD00007C
:1026B000002401409C0000202DE9F04385B0002457
:1026C00033480094019402940394816941F010010D
:1026D0008161816901F010010491816941F020015B
:1026E0008161816901F020010491816941F0040157
:1026F0008161816901F004010491816941F008015F
:1027000081618069DFF88C8000F008004FF400558B
:102710000490002229464046FEF73CFBDFF8789003
:1027200049F61047002239464846FEF733FB00952C
:10273000022601250396CDE9015469464046FEF77D
:1027400047FA00970396CDE9015469464846FEF7DB
:102750003FFA4FF4E04000901048CDE90105104DDC
:1027600069462846FEF734FAB00300900D48CDE9DB
:10277000010469462846FEF72BFA0022114628205C
:10278000FEF786FB2820FEF777FB05B0BDE8F08357
:10279000001002400010014000080140000021101C
:1027A000000C01400000111010B58EB000240794F9
:1027B000089409940A940B941C2168460C94FDF724
:1027C000C8FC17484FF0804101604721C0E901145F
:1027D00040F2E731C1604FF4807184610161FEF71E
:1027E0002FFF4FF48050079007A90D48FEF782FF96
:1027F0000B48FFF720FA0B940BA909480C94FEF73D
:10280000F7FE6020CDE900040294002269460448E6
:102810000494FFF7A8F90248FFF780F90EB010BD45
:10282000CC00002030B58FB0002409940A940B949A
:10283000142104A80C94FDF78CFC24480394009404
:10284000019402940D9420490E94016040F60F61AA
:10285000C0E901144FF6FF71C1604FF4007184614B
:102860000161FEF7EDFE4FF48050099009A9174869
:10287000FEF740FF1548FFF75CF80420049002259E
:102880006020CDE90654059004A910480894FFF78C
:102890002AFACDE900450294002269460B480394C8
:1028A000FEF7BAFF0120CDE900500422694607482F
:1028B000FEF7B2FF2020CDE90D040DA90348FEF775
:1028C00097FE0FB030BD0000000400400C01002056
:1028D000FEE770470907090E002806DA00F00F002E
:1028E00000F1E02080F8141D704700F1E02080F82E
:1028F0000014704770477047FEF766BA30B593B062
:1029000028216846FDF725FC14210AA8FDF721FCC3
:10291000002401200F9410941194010412948DE866
:10292000130004904FF4E010CDE90810022507953C
:102930006846FEF7C5FC0F20CDE90A056802CDE91F
:102940000C4002210AA80E94FEF7AEFBA8031190DA
:102950000F950FA8FEF732FB13B030BD0D4801688C
:1029600041F00101016041680B4A1140416001687A
:102970000A4A11400160016821F480210160416828
:1029800021F4FE0141604FF41F0181600449C0033E
:1029900008607047001002400000FFF8FFFFF6FEDD
:1029A00008ED00E00148FFF706B800000C01002028
:1029B000F0B50268164B174C174D4FF08047984200
:1029C00005D0B84203D0A04201D0A84203D122F0E2
:1029D00070064A683243984205D0B84203D0A042FC
:1029E00001D0A84203D122F44074CA68224322F0E5
:1029F00080044A69224302608A68C2620A6882626D
:102A0000984201D10969016301214161F0BD0000D3
:102A1000002C0140000400400008004010B50123D4
:102A2000046A8B409C430462036A8A401343036236
:102A300010BD10B5846842EA032224F47F440A439F
:102A40002243826010BD826822F070020A4342F085
:102A5000070181607047000030B5026A22F0010270
:102A60000262026A4368846924F073050C682C438F
:102A700022F002058A682A430A4DA8420BD122F0AF
:102A80000805CA6823F440732A434D6922F0040202
:102A90001D438B692B434360846149684163026233
:102AA00030BD0000002C014030B5026A22F0100257
:102AB0000262026A436884690D6824F4E64444EAC9
:102AC00005248D6822F0200242EA05120B4DA8422F
:102AD0000ED1CD6822F0800242EA05124D6923F43E
:102AE000406343EA85038D6922F0400243EA85038F
:102AF0004360846149688163026230BD002C0140FB
:102B000030B5026A22F480720262036A4268C469C4
:102B100023F4007324F073050C682C438D6843EA9A
:102B200005230C4DA8420ED1CD6823F4006343EA7F
:102B300005234D6922F4405242EA05128D6923F4BF
:102B4000806342EA05124260C4614968C16303625E
:102B500030BD0000002C014030B5026A22F48052E2
:102B60000262046A4268C3690D6823F4E64343EADB
:102B700005238D6824F4005444EA0534064DA84228
:102B800004D14D6922F4804242EA85124260C36159
:102B900049680164046230BD002C014030B4036810
:102BA0009A6822F070044A68224322F007040A68F7
:102BB00022439A604A6812F00F0F1FD11211082A9F
:102BC0001CD2DFE802F01B1B1B1B0B1D23040B692F
:102BD000D1E90221006830BCFFF72BBF0268136AFD
:102BE000146A24F00104146202689469096924F0EB
:102BF000F00444EA011191610068036230BC70473F
:102C00000A698968006830BC00F006B80A698968FA
:102C1000006830BC00F03EB810B5036A046A24F0C6
:102C200001040462846924F0F00444EA021423F0ED
:102C30000A020A438461026210BD000070B5046A92
:102C400024F0010404628469056A0F4EB04208D082
:102C5000B0F1804F05D00D4EB04202D00C4EB042C4
:102C600003D124F00304144301E044F001041A07E3
:102C700024F0F00444EA126225F00A0301F00A018C
:102C800019438261016270BD002C014000040040C4
:102C90000008004010B5036A23F010030362836943
:102CA000046A23F4704343EA023224F0A00343EAA7
:102CB00001118261016210BD30B5046A24F0100474
:102CC00004628469056A24F4407444EA022222F40E
:102CD00070444FF6FF7202EA03322243A02425F02B
:102CE000A00304EA011119438261016230BD10B5ED
:102CF000406A0021C185C184FFF717F810BD70B587
:102D0000446A2068406994F83910C0F3C010002567
:102D1000212904D118B1E584204600F062F820682A
:102D2000406994F83A10C0F38010222904D118B1F8
:102D3000E585204600F047F8E06B40F01000E063C6
:102D40002046FEF7F2FF70BD10B50146406A0968E3
:102D50000968890613D40021C1850168CA6822F474
:102D60008072CA6001684A6922F001024A61016802
:102D70004A6922F040024A61202180F83A10FFF7A8
:102D800079F910BD10B5406AFFF7A2F910BD10B572
:102D90000146406A0968096889060CD40021C1848B
:102DA00001684A6922F080024A610068C16841F006
:102DB0004001C16010BDFFF729FA10BD10B5406A8F
:102DC000FFF725FA10BD0168CA6822F49072CA6044
:102DD00001684A6922F001024A61202180F83A1014
:102DE00070470168CA6822F0C002CA60202180F8DA
:102DF0003910704710B590F83A10222901D00220FE
:102E000010BD8168B1F5805F11D0016900290168AA
:102E10001FD0496801F07F03816A4A1C82620B70EF
:102E2000C18D491E0904090CC18518D02BE0026927
:102E3000816A002A0268526805D0D2B20A80816A8B
:102E4000491C8162ECE7C2F308020A80816A891C8E
:102E5000F7E74A68816A4B1C83620A70E0E7016801
:102E6000CA6822F02002CA600168CA6822F480722F
:102E7000CA6001684A6922F001024A61202180F893
:102E80003A10FFF7F7F8002010BD00002DE9F041DF
:102E9000044600680169E26821F440511143016170
:102EA0002169A0680843616908432168CA6841F242
:102EB0000C639A430243CA6020684169A26921F405
:102EC0004071114341614C49206864253226884293
:102ED0003CD1FEF7AFF900EBC00101EB00106168D7
:102EE0008900B0FBF1F7FEF7A5F900EBC00101EB9B
:102EF00000106168B0468900B0FBF1F0B0FBF5F05E
:102F00006FF01801484307EB800106EB0110B0FB9E
:102F1000F5F000F0F006FEF78DF900EBC00101EBD3
:102F2000001061688900B0FBF1F0B0FBF5F006EB32
:102F30000016FEF77FF900EBC00101EB001061689D
:102F40008900B0FBF1F7FEF775F93BE0FEF762F997
:102F500000EBC00101EB001061688900B0FBF1F7E4
:102F6000FEF758F900EBC00101EB00106168B046B4
:102F70008900B0FBF1F0B0FBF5F06FF018014843A9
:102F800007EB800106EB0110B0FBF5F000F0F00656
:102F9000FEF740F900EBC00101EB00106168890009
:102FA000B0FBF1F0B0FBF5F006EB0016FEF732F9DE
:102FB00000EBC00101EB001061688900B0FBF1F784
:102FC000FEF728F900EBC00101EB001061688900F1
:102FD000B0FBF1F0B0FBF5F06FF01801484307EBE0
:102FE000800108EB0110B0FBF5F0216800F00F0044
:102FF00030448860BDE8F0810038014090F8391015
:10300000212901D0022070478168B1F5805F016AF3
:103010000BD04A1C0262026809785160C18C491EBB
:103020000904090CC1840ED017E009880268C1F3B5
:103030000801516001690029016A02D0491C01623E
:10304000ECE7891CFBE70168CA6822F08002CA60CD
:103050000068C16841F04001C160002070472DE95F
:10306000F041984617460E460446069D1DE0681C32
:103070001BD02DB1FDF794FEA0EB0800A84214D997
:103080002068C16821F4D071C1602068416921F0D5
:1030900001014161202084F8390084F83A000020C1
:1030A00084F838000320BDE8F0812068006836EA23
:1030B000000004D00020B842D9D00020F3E701205E
:1030C000F9E700000148FEF731BE00008C01002046
:1030D000FEE700000FB4054B10B503A9044A02989F
:1030E00000F02CF810BC5DF814FB0000A9350008B6
:1030F000980000200FB4084B10B504A902AA039849
:1031000000F01CF8044602A9002000F048FA20460E
:1031100010BC5DF814FB00009F35000802E008C8F1
:10312000121F08C1002AFAD170477047002001E041
:1031300001C1121F002AFBD1704700002DE9FF4F8B
:103140008DB00F460546002606E025280BD0DDE9A8
:103150000F1290476D1C761C28780028F5D111B00D
:103160003046BDE8F08F0024A246A1460122EC497A
:1031700000E0044315F8013F203B02FA03F0084247
:10318000F7D128782A2810D06FF02F022878A0F1E4
:103190003001092914D80AEB8A0102EB410144F0FD
:1031A000020400EB010A6D1CF0E701CF5FEA000AA0
:1031B00003D544F40054CAF1000A44F002046D1C23
:1031C00028782E2817D115F8010F44F004042A2876
:1031D0000ED06FF02F022878A0F1300109290AD80B
:1031E00009EB890102EB410100EB01096D1CF2E7DB
:1031F00057F8049B6D1C28786C280FD006DC4C28EF
:1032000017D068280DD06A2814D104E0742810D093
:103210007A280FD10DE044F400140AE044F480143D
:1032200001E044F440146978814202D104F580142D
:103230006D1C6D1C2A786E2A1FD00CDC632A31D0DD
:1032400004DC002A8BD0582A11D1A3E0642A68D06C
:10325000692A0CD165E0732A2ED004DC6F2A73D062
:10326000702A04D19BE0752A6FD0782A6ED0104660
:10327000DDE90F129047761C50E1C4F3025002289A
:1032800006D0032809D0042801CF09D0066045E103
:1032900001CFF117C0E9006140E101CF06803DE1B7
:1032A00006703BE117F8040B8DF8000000208DF844
:1032B0000100EB46012003E057F804BB4FF0FF305C
:1032C00061074FF0000102D40DE008F101018846CA
:1032D00049450FDA8045F8DB1BF808100029F4D1C6
:1032E00008E008F1010188468142FADB1BF808106A
:1032F0000029F6D1DDE90F23AAEB0800814621461B
:1033000000F036F9304400EB080604E0DDE90F1266
:103310001BF8010B9047B8F10108F7D22146484647
:10332000F7E00A21C4F302534FF0000B0891022B7F
:1033300004D001CFC117032B09D00AE0FF1D27F0ED
:103340000707F7E8020108E032E01FE020E000B2E2
:10335000C117042B01D140B2C117031E71F1000344
:1033600007DA4FF0000CD0EB0C006CEB01012D23C1
:1033700002E0230504D52B238DF82430012303E03C
:10338000E30701D02023F7E7984658E00A2110E030
:1033900010210EE010204FF0000B08900CE01021DF
:1033A0004FF0000B44F004044FF00809089103E0CB
:1033B00008214FF0000B0891C4F30253022B04D0F4
:1033C00001CF0021032B06D006E0FF1D27F00707E1
:1033D000F7E8020103E080B2042B00D1C0B24FF045
:1033E000000823072BD5702A07D0DDF820C08CF009
:1033F000100C5CEA0B0C05D00EE040238DF8243055
:10340000012308E050EA010306D030238DF8243070
:103410008DF8252002239846DDF820C08CF0080C9A
:103420005CEA0B0C0BD150EA010301D1630706D50E
:1034300030238DF824304FF00108A9F10109582AF2
:1034400004D038A20B9208AA0A920BE03AA2F9E73C
:103450005B46089AFCF7D3FE0B9B9B5C0A9A521EB4
:103460000A92137050EA0102F2D10A98ADEB000003
:1034700000F1200B600702D524F4803401E04FF006
:103480000109D94502DDA9EB0B0000E0002000EBAB
:103490000B0141440890AAEB010AE00306D4DDE9E0
:1034A0000F232146504600F063F806444FF0000910
:1034B00008E009A911F80900DDE90F12904709F1A8
:1034C0000109761CC145F4DBE0030CD5DDE90F23CF
:1034D0002146504600F04CF8064404E0DDE90F12A6
:1034E00030209047761C0899481E08900029F5DC8A
:1034F00008E00A980A990078491C0A91DDE90F1240
:103500009047761CBBF10001ABF1010BF1DC2146C9
:103510005046DDE90F2300F019F806446D1C1BE648
:103520000928010030313233343536373839616299
:10353000636465660000000030313233343536375D
:103540003839414243444546000000002DE9F0412E
:10355000044600251E461746880404D405E0394673
:103560002020B0476D1C641EF9D52846BDE8F081C7
:103570002DE9F041044600251E469046C80301D5BA
:10358000302700E02027880404D505E0414638466E
:10359000B0476D1C641EF9D52846BDE8F0810A6865
:1035A000531C0B601070704713B54FF6FF73012268
:1035B00069460248FEF78DFD00981CBD4C010020B5
:1035C00010B5034601780020024619E0A1F141043C
:1035D000052C01D8C91F04E0A1F16104052C02D813
:1035E0002739C9B205E020290FD0A1F130040A2CF7
:1035F0000AD260F31F11521C88B2D2B213F8011F15
:10360000002901D0042AE1D310BD022AF6D010BD52
:1036100001784078A1F14102052A01D8C91F04E0D0
:10362000A1F16102052A02D82739C9B203E0A1F14C
:1036300030020A2A14D228B1A0F14102052A04D886
:10364000C01F07E001F00F007047A0F16102052ADA
:1036500002D82738C0B205E0A0F130020A2A01D30F
:103660000020704761F31F10C0B2704786B0FDF7AD
:10367000B3FB00221021F648FDF78CFBF54C002728
:103680004FF0640B6762A762C4E90B7B40F2E7313D
:10369000C4E90E1B3B2060634FF4FA704500C4E997
:1036A000100540F6B830A064FFF728F9FFF704F8DA
:1036B000E948416941F0010141614069002200F09F
:1036C0000100009011461020FDF7E2FB1020FDF7ED
:1036D000D3FB002211461120FDF7DAFB1120FDF784
:1036E000CBFBDF48DD490C2601604FF4E131C0E936
:1036F0000117C760C0E904768761C761FEF79EFBCA
:10370000FEF7BAFFFFF750F8FFF78CF8D448D54919
:10371000403001604FF41641C0E90117C760C0E9AD
:1037200004768761C761FEF789FB0A20FDF71AFA64
:10373000FEF798FD0A20FDF715FA4FF00109022364
:103740004E46C9A200211846CDF80090FEF7D6FEDD
:103750000223C7A2102118460096FEF7CFFEC8A28A
:10376000CAA104F16A00FFF7C5FC022304F16A0252
:10377000202118460096FEF7C1FEC5A2C3A104F1A0
:103780006A00FFF7B7FC022304F16A0230211846F1
:103790000096FEF7B3FEC1A0FFF79CFCB8A2BCA147
:1037A000C3A0FFF797FC01A8FDF700FBC4A0FFF73B
:1037B00091FC00260DF10408C3A058F82610FFF76D
:1037C00089FC761C76B2032EF6DBC1A0FFF782FCE3
:1037D000DFF88C82E781A8F18008D8F80000476301
:1037E00000214046FEF744FA002108F14000FEF7B0
:1037F000BCF8042108F14000FEF7B7F89549012212
:10380000891D08F1C000FEF7E9FB924906224C3100
:1038100008F1C000FEF7BAFCAA462846FDF7A2F957
:103820008C4909227E3108F1C000FEF7AFFC4FF44D
:10383000FA60FDF797F908F5B27606F10C000490EE
:103840000A20FDF78FF9606A401C6062052857D98D
:103850004FF400519F486762FDF798FAA07804285A
:1038600027D2DFE800F0020C151F7A497C480622B7
:1038700052314030FEF78AFC84F802901AE0754914
:103880007748062258314030FEF780FC022007E0DE
:1038900070497348062264314030FEF777FC0320FC
:1038A000A07007E06B496E4806225E314030FEF79B
:1038B0006DFCA77088A0FFF70DFC0025715D0D2938
:1038C00022D0002922D085A0FFF704FC6D1CEDB2A8
:1038D000642DF3D382A0FFF7FDFB218981A0FFF7C0
:1038E000F9FB217882A0FFF7F5FB618984A0FFF73F
:1038F000F1FB617885A0FFF7EDFB6CA0FFF7EAFB19
:103900006079012806D08EE089A000E089A0FFF749
:10391000E1FBDBE7677130783E287ED17078302894
:103920007BD1B078312878D1F07830283FD1307908
:1039300043281ED1B079342808D1F079312805D137
:10394000707A302802D1B07A432801D0278164E010
:103950000498FFF735FE8008208130783E285CD13E
:103960007078302859D1B078312856D1F078302885
:103970001DD13079442840D1B079342808D1F0796C
:10398000312805D1707A302802D1B07A442801D08C
:10399000277042E00498FFF73BFE207030783E2805
:1039A0003BD17078302838D1B078312835D1F078D3
:1039B00031281FD1307930282FD1B079342808D15F
:1039C000F079312805D1707A312802D1B07A3028C7
:1039D00001D0678121E00498FFF7F2FDB0FBFBF016
:1039E000608130783E2818D17078302815D1B078B1
:1039F000312812D1F07830280FD1307935280CD108
:103A0000B079342808D1F079312805D1707A30287E
:103A100002D1B07A35281AD0677000203754401C84
:103A2000C0B26428FAD34449206AB1FBF0F525619D
:103A3000A089FCF7CBFB4149FCF796FBFCF7CBFBDD
:103A400060612189A1610A297AD9E16284E078E084
:103A50000008014000000020001002400038014032
:103A60004C01002000440040574D20546573740001
:103A700056657273696F6E20302E31300000000081
:103A80004D61792031322032303139002573000008
:103A900031363A30313A3431000000000A0D0A0D57
:103AA000574D5F52504D2056302E310A0D00000008
:103AB0004275696C642025732025730A0D0000008F
:103AC0005549443A000000002530385800000000F5
:103AD0000A0D0000001001405B000000256300009B
:103AE0005D0000006D5F72706D3D25303464200014
:103AF0006D5F73706565643D25303464200000009F
:103B00006D5F6D61663D2530346420006D5F456EEC
:103B100067696E65436F6F6C616E7454656D706537
:103B20007261747572653D253034642000000000B8
:103B30005F0000002E000000804F12006666663FA6
:103B400005E00498FFF764FD2838607065E70A2DEA
:103B500001D9E56200E0E062E07805284AD2DFE8BA
:103B600000F0030B19320300E781E06AB0F5966FAD
:103B700049D90220E07046E04FF4C870E081E06A65
:103B8000B0F5966F01D90221E170504535D204207D
:103B9000E07032E0E06A4FF41672A0F5966151438E
:103BA00040F21452B1FBF2F101F5C871E18140F627
:103BB000C411884201D90321E170B0F5966F1AD281
:103BC00084F8039017E0A4F80EA0E06A40F21353C3
:103BD000A0F2B14251469A4201D20222E270A0F212
:103BE000E932C72A01D284F80390884205D284F8CA
:103BF000039002E0E770E08928B1D8F80000E1897D
:103C00004163012203E0D8F800004763002210213D
:103C10003248FDF7BFF83248FCF7E8FD3221304862
:103C2000FCF74CFD2E48FCF789FC800503D52C4899
:103C3000FCF786FCA08102234D462AA200211846EB
:103C4000CDF80090FEF75AFC626929A12948A262CA
:103C5000FFF750FA0223274A002140200095FEF783
:103C60004DFC022324A2102118460095FEF746FCC5
:103C700022891FA11F48A262FFF73CFA02231D4AB6
:103C8000102140200095FEF739FC02231DA22021BF
:103C900018460095FEF732FC628915A11548A2620C
:103CA000FFF728FA0223134A202140200095FEF74F
:103CB00025FC022316A2302118460095FEF71EFCB3
:103CC00022690BA10B48A262FFF714FA0223094AEA
:103CD000302140200095FEF711FCB1E500080140BD
:103CE0009C0000204144432072706D3A00000000A7
:103CF000253664006A0000204F42442072706D3AFD
:103D0000000000004F4244204D41463A00000000B0
:103D1000534E522072706D3A000000000000000007
:103D200000000000002F0000000007000700001442
:103D30007F147F1400242A7F2A1200626408132350
:103D400000364955225000000503000000001C22E7
:103D50004100000041221C000014083E0814000825
:103D6000083E0808000000A06000000808080808D5
:103D7000000060600000002010080402003E51496D
:103D8000453E0000427F400000426151494600210B
:103D900041454B31001814127F1000274545453925
:103DA000003C4A4949300001710905030036494980
:103DB000493600064949291E000036360000000039
:103DC0005636000000081422410000141414141484
:103DD000000041221408000201510906003249592D
:103DE000513E007C1211127C007F49494936003E49
:103DF00041414122007F4141221C007F4949494104
:103E0000007F09090901003E4149497A007F0808FD
:103E1000087F0000417F4100002040413F01007FBA
:103E200008142241007F40404040007F020C027F86
:103E3000007F0408107F003E4141413E007F090998
:103E40000906003E4151215E007F091929460046BE
:103E5000494949310001017F0101003F4040403F95
:103E6000001F2040201F003F4038403F00631408DF
:103E700014630007087008070061514945430000BA
:103E80007F41410000552A552A55000041417F00DD
:103E900000040201020400404040404000000102D2
:103EA0000400002054545478007F484444380038BB
:103EB0004444442000384444487F00385454541843
:103EC00000087E0901020018A4A4A47C007F080455
:103ED00004780000447D4000004080847D00007F25
:103EE000102844000000417F4000007C0418047842
:103EF000007C0804047800384444443800FC24243E
:103F000024180018242418FC007C08040408004825
:103F10005454542000043F444020003C4040207C46
:103F2000001C2040201C003C4030403C0044281035
:103F30002844001CA0A0A07C004464544C441414E9
:103F400014141414B4ABB8D0C6F7D7DCCFDFC3E673
:103F5000BBFDB6C8B8DFC6C2C4B6D2C7CBD1CBF79B
:103F6000D7AACBD9B4F3D0A1B2E9BCC7C2BCC9BEF1
:103F7000B3FDCFB5CDB3D6B5C9E8B5A5BCDBB9ABFC
:103F8000C7EAD4AAD1AFC3BFB5E7B3D8D1B9BEADE4
:103F9000CEB3A1E3B6A8D0CDBAC5B0E6B1BECAA330
:103FA000D3E0BFD5BCE4B7B5BBD8CDCBB3F60000EA
:103FB0008060F807404848E85F48484840400001B2
:103FC0000000FF0000020B1222D20A0600000000CF
:103FD00000FC04D4545454D4047F84C536040088AF
:103FE00066010063828292AB8482C10224CF00808A
:103FF000809E9292929EE0809EB2D2929E80000815
:1040000008F4949292F10001F2929494F80800005E
:104010000000F112141010101412F1000000004002
:1040200030000339414145594141730008300020B7
:1040300030AC632018809090FF90494A484000229D
:104040006722121212404020130C142241F8000281
:1040500002E22222F22E2222E22222E202020000C8
:1040600000FF40407F4949497F4040FF0000002059
:104070002424A4FE232220FC04040404FC000010D9
:10408000080601FF010680631901010933C0000021
:1040900000FC242424FC252624FC242424040040A1
:1040A000308F80844C55252525554C808080000418
:1040B000040404F49495969494F404040404000015
:1040C000FE02027A4A4A4A4A4A7A0282FE000020E6
:1040D00020FF202000F8888888FF8888A818001012
:1040E000301F0888601F80432C10284681800008FC
:1040F00008C848484849CE48484848C80808000009
:1041000000FF444444447F44444444FF0000000012
:104110008060F807001CE0010600E01E00000001BE
:104120000000FF00804020130C132040808000100E
:104130001010FF109000FE9180FF8092FE0000049E
:1041400044827F01008082462A132A4682800080B2
:1041500060242424A4643F2424A42424A060000018
:10416000804829094D8D7B0B09284C98000000C818
:10417000B88FE88888404848E85F484848400008C9
:104180001808FF040400020B1222D20A06000040A5
:104190004042CC0004F49494FF9494F40400000092
:1041A00040201F20484442415F4142444840002093
:1041B000202020202020FF202020202020200080E0
:1041C000804020100C0300030C1020408080000071
:1041D0000000E0000000FF00000020408000000818
:1041E0000403000040807F0000000000010E00403A
:1041F0004424A4948C84FF848C94A42444400040E0
:1042000040405F4A4A4A4A4A4A4A5F40404000406A
:104210004042CC0000008484848484FC00000000C0
:1042200000007F2010003F4040404041407000802F
:1042300080829292929292929292FE80808000402E
:104240004022241048807F04081824224040008027
:10425000FE8282FE80FE8282FE8000F800FF004027
:104260003F0020BF403F40807F00004F807F000024
:10427000FE225A8620102824E32428102020000043
:10428000FF040827110D41817F010509310000005D
:104290000022322AA6A26221110981010000000039
:1042A0004222130B42827E02020A122346000020A1
:1042B00030AC63300088C8A8998E88A8C8880022CE
:1042C000672212128040300F00003F404071000012
:1042D0008060F80704E4A4A4BFA4A4E404000001DF
:1042E0000000FF40407F4A4A4A4A4A7F404000401F
:1042F0004042CC0040A09E8282829EA020200000EE
:1043000000003F908840432C1028464180800000E8
:1043100000F8494A4C48F8484C4A49F80000001057
:10432000101312121212FF121212121310100000A8
:104330008060F8074020900C030C90204040000162
:104340000000FF0080601F000000FF000000000070
:1043500080402018068000071820408000000001DF
:104360000020702826212020243860000101000050
:1043700000FE20202000F2121AD61212F2020000D3
:10438000001F080402804F20180710204F800020D3
:1043900020222222E2222222E22222222020008047
:1043A0004020100C030000003F4040404078004097
:1043B0004042CC0020D04C4B48C80808F800000010
:1043C00000007F20101F1212125F80403F0000206B
:1043D000100CF312125292121212F2020200000199
:1043E000011F11111115195191513F1111010000B7
:1043F00000F888888888FF88888888F8000000008E
:10440000001F080808087F888888889F80F00010AF
:104410006002CC8080FC4020FF1008F800000004FF
:10442000047E0100003F40404F4044474078000078
:1044300000FE0282828282FA82828282820200806E
:10444000601F40404040407F404044584040002072
:1044500030AC63201880824222121A264280002249
:104460006722121212404242427E424242400020E3
:1044700030AC63201800084848FF4848480800222C
:10448000672212121200020202FF0212221E000014
:10449000000000000C12120C0000000000000000E0
:1044A00000000000000000000000000000000010FC
:1044B0000C4444444445C64444444444140C0080E1
:1044C00040201E2040407F4444444444404000205B
:1044D00022A27E2222FE2222007C0000FF00004455
:1044E0004249484848497E484848494A4140008036
:1044F0008080BEA2A2A2A2A2A2A2BE808080000052
:10450000000006050404044484443C00000000004C
:10451000FE20203F2000FC24E4242223E20000802F
:104520007F0101FF80601F80412618264180000026
:1045300010101010D030FF30D010101010000010EC
:10454000080402090808FF080809020408100048C6
:104550004AFA0AFE09F949A80000F00000FF00220B
:10456000110B04FF0409122300000F40807F00801C
:10457000804020504844C344485020408080000080
:1045800040221A0242827F0202020A1260000010D8
:104590000C4424140405060404142444140C0000E0
:1045A0004040414141417F41414141404000000084
:1045B000F8010600F0121212F2020202FE000000E0
:1045C000FF0000001F1111111F0040807F000040FC
:1045D0004042CC0000FC24A4242222A3620000005C
:1045E00040201F2058475048454245485040000051
:1045F00000FE0202F2121212F20202FE000000009D
:10460000007F2020272424242720207F0000004032
:104610004042CC0000FF4949C949497F8000000061
:1046200040201F20405F4844404142455840000020
:10463000007C40404040FF40404040FC0000000003
:104640007C40404040407F4040404040FC000000F3
:10465000000000000000000000000000000000005A
:104660000000F800000000000000333000000000EF
:10467000100C06100C0600000000000000000040B6
:10468000C07840C0784000043F04043F04040000A8
:104690007088FC08300000001820FF211E0000F088
:1046A00008F000E018000000211C031E211E00007D
:1046B000F00888700000001E212324192721101003
:1046C000160E0000000000000000000000000000C6
:1046D0000000E0180402000000000718204000005D
:1046E000020418E00000000040201807000000400D
:1046F0004080F0804040000202010F0102020000F1
:104700000000F0000000000101011F010101000094
:104710000000000000000080B070000000000000F9
:104720000000000000000000010101010101010082
:104730000000000000000000303000000000000019
:1047400000000080601804006018060100000000EE
:10475000E010080810E000000F102020100F0000EB
:104760001010F8000000000020203F202000000072
:1047700070080808887000003028242221300000CA
:10478000300888884830000018202020110E0000D2
:1047900000C02010F8000000070424243F2400007B
:1047A000F80888880808000019212020110E000050
:1047B000E0108888180000000F112020110E000062
:1047C000380808C83808000000003F00000000005A
:1047D00070880808887000001C222121221C00001B
:1047E000E010080810E0000000312222110F000044
:1047F0000000C0C0000000000000303000000000D9
:104800000000800000000000008060000000000048
:104810000080402010080000010204081020004021
:1048200040404040404000040404040404040000EC
:104830000810204080000000201008040201000041
:104840007048080808F0000000003036010000C081
:1048500030C828E810E0000718272423140B0000B4
:1048600000C038E0000000203C2302022738200866
:10487000F8888888700000203F202020110E00C09A
:104880003008080808380007182020201008000801
:10489000F808080810E000203F202020100F000832
:1048A000F88888E8081000203F20202320180008FE
:1048B000F88888E8081000203F200003000000C0AE
:1048C0003008080838000007182020221E020008BF
:1048D000F808000008F808203F210101213F2000CE
:1048E0000808F8080800000020203F2020000000F1
:1048F000000808F8080800C08080807F00000008D9
:10490000F888C028180800203F2001263820000819
:10491000F8080000000000203F2020202030000880
:10492000F8F800F8F80800203F003F003F2000089A
:10493000F830C00008F808203F200007183F00E0CA
:104940001008080810E0000F10202020100F0008A9
:10495000F808080808F000203F210101010000E0EC
:104960001008080810E0000F18242438504F0008E1
:10497000F8888888887000203F2000030C302000D1
:10498000708808080838000038202121221C0018EF
:104990000808F8080818000000203F200000000860
:1049A000F808000008F808001F202020201F000839
:1049B00078880000C83808000007380E010000F8A9
:1049C0000800F80008F800033C0700073C03000853
:1049D0001868808068180820302C03032C302008C9
:1049E00038C800C83808000000203F200000001030
:1049F000080808C8380800203826212020180000A0
:104A00000000FE020202000000007F404040000063
:104A10000C30C000000000000000010638C000009B
:104A2000020202FE000000004040407F0000000043
:104A30000004020202040000000000000000000068
:104A40000000000000000080808080808080800066
:104A5000020204000000000000000000000000004E
:104A6000008080808000000019242222223F20083C
:104A7000F8008080000000003F112020110E00008F
:104A800000008080800000000E1120202011000016
:104A90000000808088F800000E112020103F2000C8
:104AA00000808080800000001F222222221300004C
:104AB0008080F0888888180020203F202000000097
:104AC00000808080808000006B9494949360000844
:104AD000F8008080800000203F210000203F20005F
:104AE000809898000000000020203F202000000057
:104AF0000000809898000000C08080807F0000083F
:104B0000F8000080808000203F24022D302000002B
:104B10000808F8000000000020203F20200000804E
:104B200080808080808000203F20003F20003F80E8
:104B300080008080800000203F210000203F200076
:104B400000808080800000001F202020201F008027
:104B50008000808000000080FFA12020110E000056
:104B600000008080808000000E112020A0FF808047
:104B70008080008080800020203F212000010000F4
:104B800000808080808000003324242424190000C9
:104B90008080E0808000000000001F202000008056
:104BA00080000000808000001F202020103F208017
:104BB0008080000080808000010E300806010080A7
:104BC000800080008080800F300C030C300F0000CC
:104BD000808000808080000020312E0E31200080F7
:104BE0008080000080808080818E70180601000027
:104BF000808080808080000021302C2221300000C5
:104C0000000000807C020200000000003F404000E5
:104C1000000000FF00000000000000FF0000000096
:104C200002027C800000000040403F0000000000C5
:104C30000601010202040400000000000000000060
:104C4000000000000000000102030406070809003C
:104C50000000000102030400784C0008000000205E
:104C60009C0000001C310008144D00089C0000202E
:104C7000840600002C310008000000000000000045
:104C80000000000000000000000000000000000024
:104C90000000000000000000000000000000000014
:104CA0000000000000000000000000000000000004
:104CB00000000000000000000000000000000000F4
:104CC000000000004154205A0D00303130430D00E7
:104CD000303130440D00303130350D00303131305D
:104CE0000D00313233000000000000000000000021
:104CF000000000000000415420535020300D0000FF
:104D000001000000100000000000000000A24A04A2
:044D1000000000009F
:04000005080000ED02
:00000001FF
